{
  "_format": "hh-sol-artifact-1",
  "contractName": "Tracker",
  "sourceName": "contracts/Tracker.sol",
  "abi": [
    {
      "anonymous": false,
      "inputs": [
        {
          "indexed": true,
          "internalType": "string",
          "name": "itemId",
          "type": "string"
        },
        {
          "indexed": true,
          "internalType": "bytes32",
          "name": "itemHash",
          "type": "bytes32"
        },
        {
          "indexed": false,
          "internalType": "uint256",
          "name": "timestamp",
          "type": "uint256"
        }
      ],
      "name": "ItemRegistered",
      "type": "event"
    },
    {
      "anonymous": false,
      "inputs": [
        {
          "indexed": true,
          "internalType": "string",
          "name": "itemId",
          "type": "string"
        },
        {
          "indexed": true,
          "internalType": "address",
          "name": "actor",
          "type": "address"
        },
        {
          "indexed": false,
          "internalType": "enum Tracker.Status",
          "name": "status",
          "type": "uint8"
        },
        {
          "indexed": false,
          "internalType": "uint256",
          "name": "timestamp",
          "type": "uint256"
        },
        {
          "indexed": false,
          "internalType": "string",
          "name": "note",
          "type": "string"
        }
      ],
      "name": "ItemUpdated",
      "type": "event"
    },
    {
      "anonymous": false,
      "inputs": [
        {
          "indexed": true,
          "internalType": "address",
          "name": "previousOwner",
          "type": "address"
        },
        {
          "indexed": true,
          "internalType": "address",
          "name": "newOwner",
          "type": "address"
        }
      ],
      "name": "OwnershipTransferred",
      "type": "event"
    },
    {
      "inputs": [
        {
          "internalType": "address",
          "name": "",
          "type": "address"
        }
      ],
      "name": "authorized",
      "outputs": [
        {
          "internalType": "bool",
          "name": "",
          "type": "bool"
        }
      ],
      "stateMutability": "view",
      "type": "function"
    },
    {
      "inputs": [
        {
          "internalType": "string",
          "name": "itemId",
          "type": "string"
        }
      ],
      "name": "getItemHash",
      "outputs": [
        {
          "internalType": "bytes32",
          "name": "",
          "type": "bytes32"
        }
      ],
      "stateMutability": "view",
      "type": "function"
    },
    {
      "inputs": [
        {
          "internalType": "string",
          "name": "itemId",
          "type": "string"
        }
      ],
      "name": "getLatest",
      "outputs": [
        {
          "components": [
            {
              "internalType": "address",
              "name": "actor",
              "type": "address"
            },
            {
              "internalType": "enum Tracker.Status",
              "name": "status",
              "type": "uint8"
            },
            {
              "internalType": "string",
              "name": "note",
              "type": "string"
            },
            {
              "internalType": "uint256",
              "name": "timestamp",
              "type": "uint256"
            },
            {
              "internalType": "bytes32",
              "name": "itemHash",
              "type": "bytes32"
            }
          ],
          "internalType": "struct Tracker.Update",
          "name": "",
          "type": "tuple"
        }
      ],
      "stateMutability": "view",
      "type": "function"
    },
    {
      "inputs": [
        {
          "internalType": "string",
          "name": "itemId",
          "type": "string"
        },
        {
          "internalType": "uint256",
          "name": "index",
          "type": "uint256"
        }
      ],
      "name": "getUpdateByIndex",
      "outputs": [
        {
          "components": [
            {
              "internalType": "address",
              "name": "actor",
              "type": "address"
            },
            {
              "internalType": "enum Tracker.Status",
              "name": "status",
              "type": "uint8"
            },
            {
              "internalType": "string",
              "name": "note",
              "type": "string"
            },
            {
              "internalType": "uint256",
              "name": "timestamp",
              "type": "uint256"
            },
            {
              "internalType": "bytes32",
              "name": "itemHash",
              "type": "bytes32"
            }
          ],
          "internalType": "struct Tracker.Update",
          "name": "",
          "type": "tuple"
        }
      ],
      "stateMutability": "view",
      "type": "function"
    },
    {
      "inputs": [
        {
          "internalType": "string",
          "name": "itemId",
          "type": "string"
        }
      ],
      "name": "getUpdatesLength",
      "outputs": [
        {
          "internalType": "uint256",
          "name": "",
          "type": "uint256"
        }
      ],
      "stateMutability": "view",
      "type": "function"
    },
    {
      "inputs": [
        {
          "internalType": "bytes32",
          "name": "itemHash",
          "type": "bytes32"
        }
      ],
      "name": "isItemRegistered",
      "outputs": [
        {
          "internalType": "bool",
          "name": "",
          "type": "bool"
        }
      ],
      "stateMutability": "view",
      "type": "function"
    },
    {
      "inputs": [
        {
          "internalType": "string",
          "name": "",
          "type": "string"
        }
      ],
      "name": "itemIdToHash",
      "outputs": [
        {
          "internalType": "bytes32",
          "name": "",
          "type": "bytes32"
        }
      ],
      "stateMutability": "view",
      "type": "function"
    },
    {
      "inputs": [],
      "name": "owner",
      "outputs": [
        {
          "internalType": "address",
          "name": "",
          "type": "address"
        }
      ],
      "stateMutability": "view",
      "type": "function"
    },
    {
      "inputs": [
        {
          "internalType": "string",
          "name": "itemId",
          "type": "string"
        },
        {
          "internalType": "bytes32",
          "name": "itemHash",
          "type": "bytes32"
        }
      ],
      "name": "registerItem",
      "outputs": [],
      "stateMutability": "nonpayable",
      "type": "function"
    },
    {
      "inputs": [
        {
          "internalType": "bytes32",
          "name": "",
          "type": "bytes32"
        }
      ],
      "name": "registeredItems",
      "outputs": [
        {
          "internalType": "bool",
          "name": "",
          "type": "bool"
        }
      ],
      "stateMutability": "view",
      "type": "function"
    },
    {
      "inputs": [],
      "name": "renounceOwnership",
      "outputs": [],
      "stateMutability": "nonpayable",
      "type": "function"
    },
    {
      "inputs": [
        {
          "internalType": "address",
          "name": "who",
          "type": "address"
        },
        {
          "internalType": "bool",
          "name": "allowed",
          "type": "bool"
        }
      ],
      "name": "setAuthorized",
      "outputs": [],
      "stateMutability": "nonpayable",
      "type": "function"
    },
    {
      "inputs": [
        {
          "internalType": "address",
          "name": "newOwner",
          "type": "address"
        }
      ],
      "name": "transferOwnership",
      "outputs": [],
      "stateMutability": "nonpayable",
      "type": "function"
    },
    {
      "inputs": [
        {
          "internalType": "string",
          "name": "itemId",
          "type": "string"
        },
        {
          "internalType": "enum Tracker.Status",
          "name": "status",
          "type": "uint8"
        },
        {
          "internalType": "string",
          "name": "note",
          "type": "string"
        }
      ],
      "name": "updateItem",
      "outputs": [],
      "stateMutability": "nonpayable",
      "type": "function"
    }
  ],
  "bytecode": "0x608060405234801561001057600080fd5b5061001a3361001f565b61006f565b600080546001600160a01b038381166001600160a01b0319831681178455604051919092169283917f8be0079c531659141344cd1fd0a4f28419497f9722a3daafe3b4186f6b6457e09190a35050565b6111a48061007e6000396000f3fe608060405234801561001057600080fd5b50600436106100ea5760003560e01c80638f9244d81161008c578063d06ce65011610066578063d06ce65014610218578063d24678df1461023b578063d399cd9a1461024e578063f2fde38b1461026157600080fd5b80638f9244d8146101b75780639cb7104f146101e2578063b9181611146101f557600080fd5b8063715018a6116100c8578063715018a61461014057806378087df0146101485780637e577280146101695780638da5cb5b1461019c57600080fd5b80631f8cae09146100ef578063598a262414610104578063711bf9b21461012d575b600080fd5b6101026100fd366004610c5e565b610274565b005b610117610112366004610ce7565b6104a5565b6040516101249190610d6b565b60405180910390f35b61010261013b366004610e1a565b610680565b6101026106b3565b61015b610156366004610e56565b6106c7565b604051908152602001610124565b61018c610177366004610e98565b60009081526003602052604090205460ff1690565b6040519015158152602001610124565b6000546040516001600160a01b039091168152602001610124565b61015b6101c5366004610ec7565b805160208183018101805160048252928201919093012091525481565b6101026101f0366004610ce7565b6106f4565b61018c610203366004610f78565b60026020526000908152604090205460ff1681565b61018c610226366004610e98565b60036020526000908152604090205460ff1681565b610117610249366004610e56565b6108c9565b61015b61025c366004610e56565b610ac7565b61010261026f366004610f78565b610af2565b3360009081526002602052604090205460ff16806102ab5750336102a06000546001600160a01b031690565b6001600160a01b0316145b6102ed5760405162461bcd60e51b815260206004820152600e60248201526d139bdd08185d5d1a1bdc9a5e995960921b60448201526064015b60405180910390fd5b600060048686604051610301929190610f9a565b908152602001604051809103902054905060006040518060a00160405280336001600160a01b0316815260200186600681111561034057610340610d33565b815260200185858080601f0160208091040260200160405190810160405280939291908181526020018383808284376000920191909152505050908252504260208201526040908101849052519091506001906103a09089908990610f9a565b9081526040519081900360209081019091208054600181018255600091825290829020835160049092020180546001600160a01b039092166001600160a01b03198316811782559284015184939192909183916001600160a81b03191617600160a01b83600681111561041557610415610d33565b02179055506040820151600182019061042e9082611033565b506060820151600282015560809091015160039091015560405133906104579089908990610f9a565b60405180910390207fd05004b4c23bdd3a6792531397228a5cc3875e85438fedef3874ab4e5fdd57338742888860405161049494939291906110f3565b60405180910390a350505050505050565b6104d76040805160a0810190915260008082526020820190815260606020820181905260006040830181905291015290565b600184846040516104e9929190610f9a565b90815260405190819003602001902054821061053d5760405162461bcd60e51b8152602060048201526013602482015272496e646578206f7574206f6620626f756e647360681b60448201526064016102e4565b6001848460405161054f929190610f9a565b9081526020016040518091039020828154811061056e5761056e611137565b60009182526020918290206040805160a0810190915260049092020180546001600160a01b0381168352919290919083019060ff600160a01b9091041660068111156105bc576105bc610d33565b60068111156105cd576105cd610d33565b81526020016001820180546105e190610faa565b80601f016020809104026020016040519081016040528092919081815260200182805461060d90610faa565b801561065a5780601f1061062f5761010080835404028352916020019161065a565b820191906000526020600020905b81548152906001019060200180831161063d57829003601f168201915b505050505081526020016002820154815260200160038201548152505090509392505050565b610688610b6b565b6001600160a01b03919091166000908152600260205260409020805460ff1916911515919091179055565b6106bb610b6b565b6106c56000610bc5565b565b6000600183836040516106db929190610f9a565b9081526040519081900360200190205490505b92915050565b3360009081526002602052604090205460ff168061072b5750336107206000546001600160a01b031690565b6001600160a01b0316145b6107685760405162461bcd60e51b815260206004820152600e60248201526d139bdd08185d5d1a1bdc9a5e995960921b60448201526064016102e4565b60008181526003602052604090205460ff16156107c75760405162461bcd60e51b815260206004820152601c60248201527f4974656d206861736820616c726561647920726567697374657265640000000060448201526064016102e4565b6000801b600484846040516107dd929190610f9a565b908152602001604051809103902054146108395760405162461bcd60e51b815260206004820152601a60248201527f4974656d20494420616c7265616479207265676973746572656400000000000060448201526064016102e4565b60008181526003602052604090819020805460ff191660011790555181906004906108679086908690610f9a565b90815260200160405180910390208190555080838360405161088a929190610f9a565b604051908190038120428252907fe30295af07f470261ec03ec5f0a3aa090f7282a6956025644244e339da669eaa9060200160405180910390a3505050565b6108fb6040805160a0810190915260008082526020820190815260606020820181905260006040830181905291015290565b60006001848460405161090f929190610f9a565b90815260405190819003602001902054116109595760405162461bcd60e51b815260206004820152600a6024820152694e6f207570646174657360b01b60448201526064016102e4565b6001838360405161096b929190610f9a565b9081526020016040518091039020600180858560405161098c929190610f9a565b908152604051908190036020019020546109a6919061114d565b815481106109b6576109b6611137565b60009182526020918290206040805160a0810190915260049092020180546001600160a01b0381168352919290919083019060ff600160a01b909104166006811115610a0457610a04610d33565b6006811115610a1557610a15610d33565b8152602001600182018054610a2990610faa565b80601f0160208091040260200160405190810160405280929190818152602001828054610a5590610faa565b8015610aa25780601f10610a7757610100808354040283529160200191610aa2565b820191906000526020600020905b815481529060010190602001808311610a8557829003601f168201915b5050505050815260200160028201548152602001600382015481525050905092915050565b600060048383604051610adb929190610f9a565b908152602001604051809103902054905092915050565b610afa610b6b565b6001600160a01b038116610b5f5760405162461bcd60e51b815260206004820152602660248201527f4f776e61626c653a206e6577206f776e657220697320746865207a65726f206160448201526564647265737360d01b60648201526084016102e4565b610b6881610bc5565b50565b6000546001600160a01b031633146106c55760405162461bcd60e51b815260206004820181905260248201527f4f776e61626c653a2063616c6c6572206973206e6f7420746865206f776e657260448201526064016102e4565b600080546001600160a01b038381166001600160a01b0319831681178455604051919092169283917f8be0079c531659141344cd1fd0a4f28419497f9722a3daafe3b4186f6b6457e09190a35050565b60008083601f840112610c2757600080fd5b50813567ffffffffffffffff811115610c3f57600080fd5b602083019150836020828501011115610c5757600080fd5b9250929050565b600080600080600060608688031215610c7657600080fd5b853567ffffffffffffffff80821115610c8e57600080fd5b610c9a89838a01610c15565b90975095506020880135915060078210610cb357600080fd5b90935060408701359080821115610cc957600080fd5b50610cd688828901610c15565b969995985093965092949392505050565b600080600060408486031215610cfc57600080fd5b833567ffffffffffffffff811115610d1357600080fd5b610d1f86828701610c15565b909790965060209590950135949350505050565b634e487b7160e01b600052602160045260246000fd5b60078110610d6757634e487b7160e01b600052602160045260246000fd5b9052565b602080825282516001600160a01b0316828201528281015160009190610d946040850182610d49565b50604084015160a0606085015280518060c086015260005b81811015610dc85782810184015186820160e001528301610dac565b50600060e0828701015260608601516080860152608086015160a086015260e0601f19601f830116860101935050505092915050565b80356001600160a01b0381168114610e1557600080fd5b919050565b60008060408385031215610e2d57600080fd5b610e3683610dfe565b915060208301358015158114610e4b57600080fd5b809150509250929050565b60008060208385031215610e6957600080fd5b823567ffffffffffffffff811115610e8057600080fd5b610e8c85828601610c15565b90969095509350505050565b600060208284031215610eaa57600080fd5b5035919050565b634e487b7160e01b600052604160045260246000fd5b600060208284031215610ed957600080fd5b813567ffffffffffffffff80821115610ef157600080fd5b818401915084601f830112610f0557600080fd5b813581811115610f1757610f17610eb1565b604051601f8201601f19908116603f01168101908382118183101715610f3f57610f3f610eb1565b81604052828152876020848701011115610f5857600080fd5b826020860160208301376000928101602001929092525095945050505050565b600060208284031215610f8a57600080fd5b610f9382610dfe565b9392505050565b8183823760009101908152919050565b600181811c90821680610fbe57607f821691505b602082108103610fde57634e487b7160e01b600052602260045260246000fd5b50919050565b601f82111561102e57600081815260208120601f850160051c8101602086101561100b5750805b601f850160051c820191505b8181101561102a57828155600101611017565b5050505b505050565b815167ffffffffffffffff81111561104d5761104d610eb1565b6110618161105b8454610faa565b84610fe4565b602080601f831160018114611096576000841561107e5750858301515b600019600386901b1c1916600185901b17855561102a565b600085815260208120601f198616915b828110156110c5578886015182559484019460019091019084016110a6565b50858210156110e35787850151600019600388901b60f8161c191681555b5050505050600190811b01905550565b6110fd8186610d49565b83602082015260606040820152816060820152818360808301376000818301608090810191909152601f909201601f191601019392505050565b634e487b7160e01b600052603260045260246000fd5b818103818111156106ee57634e487b7160e01b600052601160045260246000fdfea2646970667358221220fd25ef9c2d88dcece40c7ae3cf77a6308a3c99df1e6f1447c1af064fe3aae35264736f6c63430008130033",
  "linkReferences": {},
  "deployedLinkReferences": {}
}